:020000040000FA
:060000000A128A1110280B
:10000800FE00030EF0000A08F100831203137F08B4
:10001800F2000A128A1540290A128A11132883133A
:10002800C730FD000930FE008630FF00A030840094
:100038000A128A1538200A128A11C7308400EA3059
:100048000A168A1180270A128A11E901EA01EB01CE
:10005800EC01ED01EE01EF01F801F901FA0183016C
:100068000A168A11782F3728FF0000308A007F0887
:1000780082073D280A128A15432B83120313280886
:100088008039FF007F08B2002808AD002D07FF0067
:100098007F08B800A71F5128522853283814380859
:1000A8000319572858286728380A031D5C285D2833
:1000B80065280030A8000030A7000030A6000030F6
:1000C800A500A7176F280030A8000030A70000304F
:1000D800A6000030A5002C088039FF007F08B20672
:1000E8002C08AD002D07FF007F08B700AB1F7D2847
:1000F8007E287F28371437080319832884289328F3
:10010800370A031D8828892891280030AC00003060
:10011800AB000030AA000030A900AB179B280030C4
:10012800AC000030AB000030AA000030A90037084E
:1001380003199F28A028A5283808031DA428A52846
:10014800AE280030A8000030A7000030A60000301C
:10015800A500A12B2508FF007F08F3002B080A1231
:100168008A15AD210A128A11740883120313BE007E
:100178007308BD003D08AD00AE01AF01B001300805
:10018800B6002F08B5002E08B4002D08B3003E08AD
:10019800AD00AE01AF01B0013008BC002F08BB00B4
:1001A8002E08BA002D08B9002608FF007F08F300C2
:1001B8002A080A128A15AD210A128A1174088312B4
:1001C8000313BE007308BD003D08AD00AE01AF01CA
:1001D800B0012D08B3072E0803110318013E0319B7
:1001E800F628B4072F0803110318013E0319FD2848
:1001F800B507300803110318013E03190429B6078F
:100208003E08AD00AE01AF01B0012D08B9072E08B8
:1002180003110318013E03191229BA072F08031105
:100228000318013E03191929BB07300803110318E5
:10023800013E03192029BC072708FF007F08F300A7
:1002480029080A128A15AD210A128A117408831224
:100258000313BE007308BD003D08AD00AE01AF0139
:10026800B0012D08B3072E0803110318013E031926
:100278003E29B4072F0803110318013E0319452925
:10028800B507300803110318013E03194C29B607B6
:100298003E08AD00AE01AF01B0012D08B9072E0828
:1002A80003110318013E03195A29BA072F0803112D
:1002B8000318013E03196129BB073008031103180D
:1002C800013E03196829BC070830AD000310B30DBF
:1002D800B40DB50DB60DAD0B6A292608FF007F08D1
:1002E800F30029080A128A15AD210A128A11740826
:1002F80083120313BE007308BD003D08AD003E081D
:10030800AE00AF01B0012D08B3072E080311031882
:10031800013E03199029B4072F0803110318013E61
:1003280003199729B507300803110318013E03196B
:100338009E29B6072508FF007F08F3002A080A123D
:100348008A15AD210A128A11740883120313BE009C
:100358007308BD003D08AD003E08AE00AF01B00116
:100368002D08B3072E0803110318013E0319BD29F0
:10037800B4072F0803110318013E0319C429B50750
:10038800300803110318013E0319CB29B6070830BA
:10039800AD000310B30DB40DB50DB60DAD0BCD29E1
:1003A8002508FF007F08F30029080A128A15AD21E5
:1003B8000A128A11740883120313BE007308BD0061
:1003C8003D08AD003E08AE00AF01B0012D08B307EF
:1003D8002E0803110318013E0319F329B4072F0847
:1003E80003110318013E0319FA29B5073008031150
:1003F8000318013E0319012AB6072608FF007F08E3
:10040800F3002B080A128A15AD210A128A11740802
:1004180083120313BE007308BD003D08AD003E08FB
:10042800AE00AF01B0012D08B9072E08031103185B
:10043800013E0319202ABA072F0803110318013EA9
:100448000319272ABB07300803110318013E0319B3
:100458002E2ABC072708FF007F08F3002A080A1283
:100468008A15AD210A128A11740883120313BE007B
:100478007308BD003D08AD003E08AE00AF01B001F5
:100488002D08B9072E0803110318013E03194D2A38
:10049800BA072F0803110318013E0319542ABB0792
:1004A800300803110318013E03195B2ABC0727080B
:1004B800FF007F08F3002B080A128A15AD210A12E3
:1004C8008A11740883120313BE007308BD003D0827
:1004D800AD003E08AE00AF01B00108300310AD0D0D
:1004E800AE0DAF0DB00DFF3E031D722A2D08B907E2
:1004F8002E0803110318013E0319832ABA072F088F
:1005080003110318013E03198A2ABB073008031197
:100518000318013E0319912ABC073308AD003408BB
:10052800AE003508AF003608B00018300310B00C24
:10053800AF0CAE0CAD0CFF3E031D9A2A2D08B9076F
:100548002E0803110318013E0319AB2ABA072F0816
:1005580003110318013E0319B22ABB07300803111F
:100568000318013E0319B92ABC070830AD0003106F
:10057800B30DB40DB50DB60DAD0BBB2A3808370752
:10058800AD00AE01AE0D2D08823EBD002E08031849
:10059800013EFF3EBE00ED2A0130AD000310B90D4B
:1005A800BA0DBB0DBC0DAD0BD22AB61FDC2ADD2A55
:1005B800DE2A39140130AD000310B30DB40DB50DAA
:1005C800B60DAD0BE02AFF30BD070318BE0AFF3099
:1005D800BE07BB1FF02AF12AD02AB701B61FF52A99
:1005E800F62A122BFF303305AD00FF303405AE007C
:1005F800FF303505AF007F303605B00030082F04D6
:100608002E042D040319092B0A2B0D2BB701B70A49
:10061800122B391C102B112B122B0A2B37080319FC
:10062800162B172B482B0130B9070030031801305F
:10063800BA07003003180130BB0700300318013037
:10064800BC073C1C282B292B482B3908AD003A083D
:10065800AE003B08AF003C08B0000130B100300DDF
:10066800B00CAF0CAE0CAD0CB10B332B3008BC008A
:100678002F08BB002E08BA002D08B9000130BD07AD
:100688000318BE0A0030BE073E08803AFF008030DB
:100698007F02031D512BFF303D02031C542B552BA9
:1006A800602B7F3083120313BC008030BB00003006
:1006B800BA000030B900952B831203133E08803A24
:1006C800FF0080307F02031D6B2B01303D020318B1
:1006D8006E2B6F2B7B2B003083120313BC00003072
:1006E800BB000030BA000030B900B201952B83126C
:1006F80003133D08FF007F08B800FF30B905FF303D
:10070800BA057F30BB050030BC05381C8C2B8D2BFF
:100718008E2BBB173808AD0003102D0CFF007F0887
:10072800BC003208FF007F08BC043C08A8003B0856
:10073800A7003A08A6003908A50008008312031389
:1007480046088039FF007F08D0004608C7004707E1
:10075800FF007F08D700C51FB22BB32BB42B57144B
:1007680057080319B82BB92BC92B570A031DBD2BE2
:10077800BE2BC62B0030C6000030C5000030C400B8
:100788000030C300C517C601D12B0030C6000030A9
:10079800C5000030C4000030C30042088039FF00A3
:1007A8007F08D0064208C7004707FF007F08D80027
:1007B800C11FDF2BE02BE12B581458080319E52B38
:1007C800E62BF62B580A031DEA2BEB2BF32B0030F4
:1007D800C2000030C1000030C0000030BF00C117A7
:1007E800C201FE2B0030C2000030C1000030C00042
:1007F8000030BF004208410440043F04031D052C9B
:10080800062C1F2C0030C6000030C5000030C40084
:100818000030C3008030C5047F30C6045008FF0094
:100828007F08C6044608C2004508C1004408C00045
:100838004308BF007E2D5708031D232C242C2D2C84
:100848000030C2000030C1000030C0000030BF00DE
:100858007E2D5708C700C8014808CA005808470233
:10086800C900031CCA0349087F3ED1004A0803187F
:10087800013E003ED2004608CF004508CE0044089D
:10088800CD004308CC000030C6000030C500003061
:10089800C4000030C3000030D6000030D50000305E
:1008A800D4000030D300D801A32C580803195D2CBC
:1008B8005E2C7E2C0130C7000310CC0DCD0DCE0D63
:1008C800CF0DC70B602C0130C7000310C30DC40D3A
:1008D800C50DC60DC70B692CD61F732C742C752C2F
:1008E80043140130C7000310D30DD40DD50DD60D18
:1008F800C70B772C42084F02031D8C2C41084E026F
:10090800031D8C2C40084D02031D8C2C3F084C0203
:10091800031C8F2C902C9F2C56173F08CC024008A4
:10092800031C400FCD024108031C410FCE024208B0
:10093800031C420FCF020130FF007F08D8071A308E
:100948005802031CA82CA92C592C4F084E044D04FE
:100958004C040319B02CB12CD02C5314D02C0130DA
:10096800C7000310C30DC40DC50DC60DC70BB52CAC
:10097800D61FBF2CC02CC12C43140130C700031054
:10098800D30DD40DD50DD60DC70BC32CFF30D10711
:100998000318D20AFF30D207C51FD32CD42CB32C8E
:1009A800D801D61FD82CD92CF52CFF305305C700F9
:1009B800FF305405C800FF305505C9007F30560583
:1009C800CA004A084904480447040319EC2CED2CD2
:1009D800F02CD801D80AF52C431CF32CF42CF52C58
:1009E800ED2C58080319F92CFA2C2B2D0130C307CC
:1009F800003003180130C407003003180130C50760
:100A0800003003180130C607461C0B2D0C2D2B2D6A
:100A18004308C7004408C8004508C9004608CA007A
:100A28000130CB004A0DCA0CC90CC80CC70CCB0B43
:100A3800162D4A08C6004908C5004808C4004708DA
:100A4800C3000130D1070318D20A0030D207520878
:100A5800803AFF0080307F02031D342DFF305102A1
:100A6800031C372D382D462DFF3083120313D10078
:100A78000030D2000030C6000030C5000030C4008D
:100A88000030C300831203135208803AFF008030FD
:100A98007F02031D512D013051020318542D552D8D
:100AA800622D83120313D101D2010030C600003039
:100AB800C5000030C4000030C300D0018312031306
:100AC8005108FF007F08D700571C6B2D6C2D6E2D29
:100AD800C517722D7F30FF007F08C5055708C7006E
:100AE8000310470CFF007F08C6005008FF007F086E
:100AF800C604162C080083120313AB002B08031935
:100B0800862D872D9B2DA61F8A2D8B2D9B2D230986
:100B1800AD002409AE002509AF002609B000AD0AD2
:100B28000319AE0A0319AF0A0319B00AA32D260840
:100B3800B0002508AF002408AE002308AD00260841
:100B4800250424042304031DAA2DAB2DB42D003045
:100B5800A6000030A5000030A4000030A3003A2E03
:100B68009630FF007F08AC00C62D0130FF007F08DB
:100B7800AC0701300310B00CAF0CAE0CAD0CFF3E4F
:100B8800031DBE2DFE303005031DCB2DCC2DB92DF8
:100B9800E82D0130FF007F08AC070130AD070030B9
:100BA80003180130AE07003003180130AF070030DA
:100BB80003180130B00701300310B00CAF0CAE0CB5
:100BC800AD0CFF3E031DE02DFF303005031DED2D5C
:100BD800EE2DCD2DFA2D0130AC020130A700031007
:100BE800AD0DAE0DAF0DB00DA70BF32DAF1BFD2D49
:100BF800FE2D042E02302C020318032E042EEF2D96
:100C08002C18072E082E102EFF30AD05FF30AE052C
:100C18007F30AF05FF30B0050310AC0C2C08A700DF
:100C2800A801A901AA0118300310A70DA80DA90D44
:100C3800AA0DFF3E031D182E2708AD042808AE0490
:100C48002908AF042A08B0042B0803192C2E2D2ECE
:100C5800322EA61F302E312E322EB0173008A600A5
:100C68002F08A5002E08A4002D08A30008000230B4
:100C78000A128A15D0220A128A11730883120313E2
:100C8800DB007408DC00DD01DE015E08A6005D08FB
:100C9800A5005C08A4005B08A30000300A128A11B2
:100CA8007F250A128A11831203132608E2002508F9
:100CB800E1002408E0002308DF004430C2007F3050
:100CC800C100C030C0000030BF004030A800A030D4
:100CD800A7000030A6000030A5006208AC0061083B
:100CE800AB006008AA005F08A9000A128A11412017
:100CF8000A128A11831203132808C6002708C500A0
:100D08002608C4002508C3000A128A11A2230A1261
:100D18008A11831203134208E8004108E7004008DB
:100D2800E6003F08E5004130C2002030C100003035
:100D3800C0000030BF006808C6006708C500660824
:100D4800C4006508C3000A128A11A2230A128A1174
:100D5800831203134208E8004108E7004008E60050
:100D68003F08E5006808AC006708AB006608AA0001
:100D78006508A9004430A8007A30A7000030A60012
:100D88000030A5000A128A1141200A128A11831222
:100D980003132808C2002708C1002608C000250838
:100DA800BF000A128A117A270A128A1183120313C2
:100DB8004008E4003F08E3006408DA006308D9004B
:100DC800080083120313A300A101A201A0016F0868
:100DD800031DEF2EF02EF22EA001A00A08302302E8
:100DE800031CF72EF82EFA2EA001A00A2008031DD6
:100DF800FE2EFF2E792F192F0030A2000530A100FA
:100E08003A2F0030A2000630A1003A2F0030A2008D
:100E18000730A1003A2F0030A2000830A1003A2F75
:100E28000030A2000930A1003A2F2308F40074070B
:100E38007907F5007508840083130008F600F701A8
:100E48007708003A0319292F3A2F7608003A031930
:100E5800002F013A0319052F033A03190A2F013A03
:100E680003190F2F073A0319142F3A2F7308031D7C
:100E78003E2F3F2F5A2F0130F4002308F500750745
:100E88007907F600760A8400000A4C2F0310F40D47
:100E9800FF3E031D4A2F7408FF3AFF002108840013
:100EA8008317221C83137F088005792F7303031D82
:100EB8005E2F5F2F792F0130F4002308F5007507A6
:100EC8007907F600760A8400000A6C2F0310F40DE7
:100ED800FF3E031D6A2F7408FF0021088400831752
:100EE800221C83137F088004792F080003108312C3
:100EF8000313410D420DFF007F08C8004808031D79
:100F0800862F872F902F0030C2000030C10000309C
:100F1800C0000030BF00F52F3F08C3004008C400E0
:100F28004108C5004208C6001F300310C60CC50C96
:100F3800C40CC30CFF3E031D992F4308FF007F0814
:100F4800C700C117FF30BF05FF30C005FF30C1051E
:100F58000030C2059630C802C81FB32FB42FCE2F59
:100F68004808803A973E0318BA2FBB2FBC2F872F0B
:100F780001300310C20CC10CC00CBF0CFF3E031D96
:100F8800BD2F0130FF007F08C807031DCC2FCD2FD0
:100F9800BC2FE52F20304802031CD32FD42FE02F7D
:100FA800872F0130C3000310BF0DC00DC10DC20D46
:100FB800C30BD72F0130C8024808031DE42FE52FC3
:100FC800D52F47080319E92FEA2FF52FBF09C009C4
:100FD800C109C209BF0A0319C00A0319C10A0319C2
:100FE800C20A080083160313E2010230FF007F08DB
:080FF800E300E401E40A080033
:101004000A128A11F6270A128A15E2300A128A1580
:101014008C270A128A1508000A168A119A270A12BE
:101024008A15D6300A128A158C270A128A15F301FA
:1010340007300A128A11E5260A128A1508000130BF
:101044000A128A1580230A128A1500300A128A1598
:1010540080230A128A1502300A128A1580230A1282
:101064008A1508007E088A007F0882000A128A1501
:1010740034200A128A158000840A04087D060319A4
:101084000034FF0A0319FE0A38280330FF007F08E2
:1010940083160313E800E901DC010430FF007F0834
:1010A400DD00DE01D9010530FF007F08DA00DB0135
:1010B4000800F500F401751C602861286528730890
:1010C400FF007F08F4070310F30D0310F50C7508F7
:1010D400031D6D286E285D28740808000230FF0087
:1010E4007F0883160313CF000330FF007F08D0006E
:1010F400D101D10A0230FF007F08CC000430FF0088
:101104007F08CD00CE01CE0A080083160313111800
:101114008C288D28872891189028912887281119C0
:10112400942895288728911998289928872814198C
:101134009C289D28872808000A128A1547200A122D
:101144008A15E8300A128A1538250A128A15DC3005
:101154000A128A158C270A128A15D9300A128A159E
:101164008C270A128A150800831203136C03031DCB
:10117400BC28BD28CF28C030FF007F08F4008316A8
:10118400031349080A128A1522210A128A15023009
:10119400FF007F0883120313EC000800F301F30A35
:1011A400F4017408AA3E840083130008031DDB289D
:1011B400DC28DF28F301F30AE9280130FF007F0867
:1011C400F40703307402031CE828E928D3287308C1
:1011D400080001300A168A1170270A128A1583162C
:1011E40003130C140A128A1599240A128A150B1770
:1011F4008B170A168A1168270A128A150A128A1589
:1012040001220A128A150800F400F3017408031D70
:101214000C290D290F29F301F30A7308031D13295F
:10122400142921297408FF007F08F9007408103E6E
:10123400FF007F0883120313EE00EF01EF0A08009A
:10124400F5000A168A1158270A128A15A0300A16C0
:101254008A11EF270A128A1574080A168A11EF27D1
:101264000A128A1575080A168A11EF270A128A15B6
:101274000A168A1160270A128A1508000C1C4329D1
:1012840044295429831603136A0803194A294B294C
:1012940051296A080A128A1138200A128A158312FF
:1012A40003130C108B1C5729582959298B107208C9
:1012B400FF0071088A00700E8300FE0E7E0E090086
:1012C400831203136C08031D682969296F290A1600
:1012D4008A113A270A128A1585296C03031D73297A
:1012E40074297D298316031349080A128A15D62105
:1012F4000A128A1585298316031347080A128A15C8
:10130400B0260A128A1508003F3406345B344F3481
:1013140066346D347D3407347F346F3401340034E3
:101324000034013402340134013401340034023411
:1013340002340234053400340234003403340134FA
:1013440007340334013402340134013401340134E8
:1013540001340034013483120313A400A001A10159
:101364007308F500F6017508A2007608A300241C92
:10137400BC29BD29C3292208A0070318A10A2308F0
:10138400A10701300310A20DA30DFF3E031DC429C4
:101394000310A40C2408031DD029D129B92921083C
:1013A400F4002008F300080083120313AE00013098
:1013B400E9070318EA0A0030EA0700306A026430D9
:1013C400031969020318E729E829EF292E080A12EC
:1013D4008A15B0260A128A15002A00306A02C8301B
:1013E400031969020318F729F829FE290A168A1134
:1013F4003A270A128A15002AE901EA0108000A12AA
:101404008A1560220A128A15781D092A0A2A102AC6
:101414000A128A1562210A128A157811F81C132AF5
:10142400142A1A2A0A128A1598220A128A15F810FE
:10143400F81E1D2A1E2A242A0A128A1550240A126A
:101444008A15F812781E272A282A012A0A128A15D0
:10145400B6200A128A157812012A0800831203138F
:10146400A00020080319372A382A5F2A2008FF0021
:101474007F0883160313D50083120313A1010330DD
:10148400FF007F08F30021080A128A155B200A1264
:101494008A158316031355070A128A158C270A1214
:1014A4008A150130FF007F0883120313A10703305C
:1014B4002102031C5E2A5F2A412A0800822A0A1696
:1014C4008A1148270A128A150A168A1150270A1205
:1014D4008A15972A0A168A1148270A128A150A16A3
:1014E4008A1150270A128A150A128A1509230A1228
:1014F4008A15972A0A128A1507240A128A15972A26
:10150400831203136C08AB00AC012C08003A0319D6
:101514008C2A972A2B08003A0319612A013A0319E5
:101524006C2A033A03197C2A972A08000A128A11A2
:101534003B260A128A15831603134A0883120313DF
:10154400590783160313CA004B0803184B0A831266
:1015540003135A0783160313CB000130FF007F08DF
:10156400C8070A304806031DB82AB92ACF2A0A3008
:10157400F3000030F4004B08F6004A08F5000A12A4
:101584008A15C1230A128A157308FF007F0883167F
:101594000313C700CA01CB01C80108008312031357
:1015A400A000A101A2017A03031DD92ADA2A042B7F
:1015B4001F1420080739F50003300310F50DFF3E12
:1015C400031DDF2A1F08C73975049F000830F60081
:1015D400C930F500F50BEC2AF60BEC2AF12A83123C
:1015E40003131F151F19F72AF82AF42AFE30FF00E7
:1015F4007F089F051E08A200831603131E0883128A
:101604000313A1002208F4002108F30008000A12C1
:101614008A1521200A128A1500300A168A114127D8
:101624000A128A15003A031D182B192B282B4B304C
:101634008316031349020318202B212B422B49083C
:10164400053EFF007F08C9007814422B01300A16BA
:101654008A1141270A128A15003A031D322B332BB3
:10166400412B2430831603134902031C3A2B3B2BD2
:10167400422B4908FB3EFF007F08C900262B781047
:1016840008000130FF007F0883160313D2070130DE
:10169400D3070318D40A0030D4070130FF007F08B1
:1016A40083120313EB076430831603135206031DDE
:1016B4005C2B5D2B5F2BF814D201781C622B632BFF
:1016C400652BD301D4018830530613300319540613
:1016D400031D6D2B6E2B712B7816D301D401F816D4
:1016E400831203136B080319782B792B7B2B781542
:1016F400EB0105308E00F5308F00080083120313D0
:10170400AA002A080A128A151A270A128A15FF0043
:101714007F0883120313A9002908031D922B932B1E
:10172400BA2B023083120313A7000430A600B93089
:10173400A500A50B9B2BA60B9B2BA70B9B2BA22BCE
:10174400831203132A080A128A151A270A128A1501
:10175400FF007F0883120313A9002908031DB32B7C
:10176400B42BBA2B2A08AA3E840083138001C02B11
:101774002A08AA3E840083138001800A0800831289
:101784000313A101A201730874040319CA2BCB2B00
:10179400022CA001A00AD92B01300310F30DF40D83
:1017A400FF3E031DCF2B0130FF007F08A007F41F6D
:1017B400DC2BDD2BCE2B01300310A10DA20DFF3E3F
:1017C400031DDE2B74087602031DEA2B73087502D1
:1017D400031CED2BEE2BF52B7308F5027408031C88
:1017E400F603F602211401300310F40CF30CFF3E4F
:1017F400031DF62B0130A002031D012C022CDD2B4E
:101804002208F4002108F300080083160313490892
:10181400053E83120313A400003003180130A50011
:101824002508803A803C031D1B2C240883160313CF
:101834004702031C1E2C1F2C292C0A168A11502720
:101844000A128A150A168A1188270A128A1583161B
:1018540003134908FB3E83120313A400FF3003184B
:101864000030A5002508803AA60080302602031D1A
:10187400412C831603134708831203132402031C09
:10188400442C452C4F2C0A168A1148270A128A1513
:101894000A168A1191270A128A1508000A128A1553
:1018A40021200A128A150A128A15D0200A128A15D2
:1018B400003A03195E2C5F2C982C02300A168A1108
:1018C40041270A128A15003A031D692C6A2C7E2CC2
:1018D400831203136C030319702C712C772C0230C0
:1018E4006C06031D762C772C792CEC01982C023095
:1018F400FF007F08EC00982C00300A168A1141275B
:101904000A128A15003A0319882C892C942C013068
:101914000A168A1141270A128A15003A031D932CCC
:10192400942C982C83120313EC01EC0A0800AD30BC
:101934000A128A1506210A128A1501300A128A151A
:10194400E6240A128A150A168A11BC270A128A1575
:101954000A168A11CD270A128A150A128A1502203C
:101964000A128A150A168A1133270A128A150A12CC
:101974008A159E200A128A150A128A150E200A1246
:101984008A150A168A112D270A128A15C030FF00FB
:101994007F08F4003C300A128A1522210A128A15A3
:1019A4003C30FF007F0883160313C9000A128A1112
:1019B4003B260A128A15831203135908FF007F0875
:1019C40083160313C7000800F50075080319EB2CF0
:1019D400EC2C372D750884000A168A1100200A128F
:1019E4008A150339F30006300310F30DFF3E031D7F
:1019F400F62C831203131F08CF3973049F00750854
:101A040084000A168A1100200A128A150439F30088
:101A140004300310F30DFF3E031D0B2D8316031337
:101A24001F08BF3973049F001E2D7F30FF007F08FD
:101A34009F05352D9F17352D7508013E84000A1624
:101A44008A1100200A128A15F300F4017408003A7E
:101A540003192D2D352D7308003A0319172D013A5A
:101A640003191C2D352DFA01FA0A0800F700F501B7
:101A7400F601552D0030F6008530F500712D00304B
:101A8400F6008630F500712D0030F6008730F50041
:101A9400712D0030F6008830F500712D0030F6000D
:101AA4008930F500712D7708840083130008F30052
:101AB400F4017408003A0319602D712D7308003A7B
:101AC40003193C2D013A0319412D033A0319462DFC
:101AD400013A03194B2D073A0319502D712D770A3A
:101AE40084000003031D772D782D822DFF30FF0025
:101AF400750884008317761C83137F0880008F2D5C
:101B0400770A84000008031D882D892D8F2D750800
:101B140084008317761C8313800108008312031347
:101B2400A101F61F962D972D9E2DF509F609F50AAC
:101B34000319F60AA101A10AF41FA12DA22DA72DB4
:101B4400F309F409F30A0319F40A73087404031972
:101B5400AC2DAD2DDC2DA001A00ABB2D013003104E
:101B6400F30DF40DFF3E031DB12D0130FF007F087E
:101B7400A007F41FBE2DBF2DB02D74087602031DDF
:101B8400C52D73087502031CC82DC92DCF2D7308EC
:101B9400F5027408031CF603F60201300310F40C7A
:101BA400F30CFF3E031DD02D0130A002031DDB2DDD
:101BB400DC2DBF2D21080319E02DE12DE62DF509BB
:101BC400F609F50A0319F60A7608F4007508F30015
:101BD400080083120313A900AA01AB01A8016F082E
:101BE400031DF52DF62DF82DA801A80A29080319BF
:101BF400FC2DFD2DFF2DA801A80A2808031D032E86
:101C0400042E462E1E2E0030AB000530AA003D2EB9
:101C14000030AB000630AA003D2E0030AB00073088
:101C2400AA003D2E0030AB000830AA003D2E003043
:101C3400AB000930AA003D2E29086E07A50025082F
:101C4400840083130008A600A7012708003A03199B
:101C54002C2E3D2E2608003A0319052E013A0319AD
:101C64000A2E033A03190F2E013A0319142E073AC8
:101C74000319192E3D2E2408FF002A088400831717
:101C84002B1C83137F088000080083120313A10117
:101C9400F41F4D2E4E2E552EF309F409F30A0319A1
:101CA400F40AA101A10AF61F582E592E622EF50935
:101CB400F609F50A0319F60A0130FF007F08A106A8
:101CC400A201A301730874040319692E6A2EA12EBC
:101CD400A001A00A782E01300310F30DF40DFF3E8D
:101CE400031D6E2E0130FF007F08A007F41F7B2E1A
:101CF4007C2E6D2E01300310A20DA30DFF3E031D9B
:101D04007D2E74087602031D892E73087502031C48
:101D14008C2E8D2E942E7308F5027408031CF60382
:101D2400F602221401300310F40CF30CFF3E031DE1
:101D3400952E0130A002031DA02EA12E7C2E210879
:101D44000319A52EA62EAB2EA209A309A20A0319D4
:101D5400A30A2308F4002208F3000800F7000A305D
:101D6400F3000030F400770883120313AC00AD01D4
:101D74002C08F5002D08F6000A128A1547260A12C7
:101D84008A157308A03E840083130008FF007F08AF
:101D940083120313A40000300A128A15EB250A12D9
:101DA4008A158312031305160D3083120313AD0035
:101DB400FB30AC00AC0BDC2EAD0BDC2EEF30FF00A7
:101DC4007F088312031385050A30F3000030F40002
:101DD4007708AC00AD012C08F5002D08F6000A12B6
:101DE4008A1590250A128A157308A03E840083136D
:101DF4000008FF007F0883120313A40000300A12B6
:101E04008A15EB250A128A158312031385160D30E1
:101E140083120313AD00FB30AC00AC0B0F2FAD0BE2
:101E24000F2FDF30FF007F0883120313850508009E
:101E340083120313A400A201A301A1016F08031DCF
:101E4400242F252F272FA101A10A08302402031CC7
:101E54002C2F2D2F2F2FA101A10A2108031D332F71
:101E6400342F8A2F4E2F0030A3000530A2006F2F8D
:101E74000030A3000630A2006F2F0030A30007300B
:101E8400A2006F2F0030A3000830A2006F2F003093
:101E9400A3000930A2006F2F2408F3007307790709
:101EA400F4007408840083130008F500F601760832
:101EB400003A03195E2F6F2F7508003A0319352F66
:101EC400013A03193A2F033A03193F2F013A031930
:101ED400442F073A0319492F6F2F220884008317D0
:101EE400231C83130008F3002408F4007407790703
:101EF400F500750A84008313000A822F0310F30C83
:101F0400FF3E031D802F73080139FF007F08A000E6
:101F140020080800F700F501F601A92F0030F600AB
:101F24008530F500C52F0030F6008630F500C52F4A
:101F34000030F6008730F500C52F0030F6008830F9
:101F4400F500C52F0030F6008930F500C52F77085D
:101F5400840083130008F300F4017408003A0319A1
:101F6400B42FC52F7308003A0319902F013A0319AF
:101F7400952F033A03199A2F013A03199F2F073A11
:101F84000319A42FC52F7708023E84000003031D04
:101F9400CC2FCD2FE22F0130F300770A8400000A02
:101FA400D52F0310F30DFF3E031DD32F7308FF003D
:101FB400750884008317761C83137F088004FF2F21
:101FC4007708023E84000008031DE92FEA2FFF2F43
:101FD4000130F300770A8400000AF22F0310F30D96
:101FE400FF3E031DF02F7308FF3AFF0075088400BD
:101FF4008317761C83137F088005080010308A003D
:0C2004000408840A82070034023401340E
:102E5A000A168A11DE270A168A110800BE300A12DB
:102E6A008A1530220A168A110800CF30FF007F081F
:102E7A008312031385050800F3007308AA3E840031
:102E8A00831300080800F30103300A128A11E526A9
:102E9A000A168A110800F30104300A128A11E5267B
:102EAA000A168A11080083160313111411185E2FCB
:102EBA005F2F5B2F08008316031311151119662F54
:102ECA00672F632F08000530831203138E00FF302B
:102EDA008F0010140800F3007308FF007F088316A0
:102EEA000313EA0008000A128A15EB200A168A114F
:102EFA000A128A11102864008001840A0406031940
:102F0A0000340406812FF301F30A03300A128A11EE
:102F1A00E5260A168A110800F301F30A04300A1298
:102F2A008A11E5260A168A11080083160313D601A8
:102F3A00D60A0730FF007F08D700D8010800023000
:102F4A00FF007F0883160313DF000230FF007F08AB
:102F5A00E000E10108000230FF007F088316031336
:102F6A00E5000530FF007F08E600E70108000A16C1
:102F7A008A11A4270A168A11DF300A128A158C27A9
:102F8A000A168A110A168A1148270A168A1108008F
:102F9A000A168A11B0270A168A11E5300A128A150A
:102FAA008C270A168A110A168A1150270A168A11BC
:102FBA0008000A128A1570200A168A11831603134A
:102FCA0094172830831203139400323083160313A4
:102FDA0093000800F3007308831203139300831607
:102FEA0003131418F92FFA2FF42F0A128A158720BF
:062FFA000A168A1108000E
:02400E007A3FF7
:00000001FF
